{
  "_format": "hh3-artifact-1",
  "contractName": "TagAISteem",
  "sourceName": "contracts/TagAISteem.sol",
  "abi": [
    {
      "inputs": [
        {
          "internalType": "address",
          "name": "_minter",
          "type": "address"
        }
      ],
      "stateMutability": "nonpayable",
      "type": "constructor"
    },
    {
      "inputs": [
        {
          "internalType": "address",
          "name": "spender",
          "type": "address"
        },
        {
          "internalType": "uint256",
          "name": "allowance",
          "type": "uint256"
        },
        {
          "internalType": "uint256",
          "name": "needed",
          "type": "uint256"
        }
      ],
      "name": "ERC20InsufficientAllowance",
      "type": "error"
    },
    {
      "inputs": [
        {
          "internalType": "address",
          "name": "sender",
          "type": "address"
        },
        {
          "internalType": "uint256",
          "name": "balance",
          "type": "uint256"
        },
        {
          "internalType": "uint256",
          "name": "needed",
          "type": "uint256"
        }
      ],
      "name": "ERC20InsufficientBalance",
      "type": "error"
    },
    {
      "inputs": [
        {
          "internalType": "address",
          "name": "approver",
          "type": "address"
        }
      ],
      "name": "ERC20InvalidApprover",
      "type": "error"
    },
    {
      "inputs": [
        {
          "internalType": "address",
          "name": "receiver",
          "type": "address"
        }
      ],
      "name": "ERC20InvalidReceiver",
      "type": "error"
    },
    {
      "inputs": [
        {
          "internalType": "address",
          "name": "sender",
          "type": "address"
        }
      ],
      "name": "ERC20InvalidSender",
      "type": "error"
    },
    {
      "inputs": [
        {
          "internalType": "address",
          "name": "spender",
          "type": "address"
        }
      ],
      "name": "ERC20InvalidSpender",
      "type": "error"
    },
    {
      "inputs": [
        {
          "internalType": "address",
          "name": "owner",
          "type": "address"
        }
      ],
      "name": "OwnableInvalidOwner",
      "type": "error"
    },
    {
      "inputs": [
        {
          "internalType": "address",
          "name": "account",
          "type": "address"
        }
      ],
      "name": "OwnableUnauthorizedAccount",
      "type": "error"
    },
    {
      "anonymous": false,
      "inputs": [
        {
          "indexed": true,
          "internalType": "address",
          "name": "owner",
          "type": "address"
        },
        {
          "indexed": true,
          "internalType": "address",
          "name": "spender",
          "type": "address"
        },
        {
          "indexed": false,
          "internalType": "uint256",
          "name": "value",
          "type": "uint256"
        }
      ],
      "name": "Approval",
      "type": "event"
    },
    {
      "anonymous": false,
      "inputs": [
        {
          "indexed": true,
          "internalType": "address",
          "name": "previousOwner",
          "type": "address"
        },
        {
          "indexed": true,
          "internalType": "address",
          "name": "newOwner",
          "type": "address"
        }
      ],
      "name": "OwnershipTransferred",
      "type": "event"
    },
    {
      "anonymous": false,
      "inputs": [
        {
          "indexed": false,
          "internalType": "string",
          "name": "steemAccount",
          "type": "string"
        },
        {
          "indexed": false,
          "internalType": "address",
          "name": "user",
          "type": "address"
        },
        {
          "indexed": false,
          "internalType": "uint256",
          "name": "amount",
          "type": "uint256"
        }
      ],
      "name": "SteemToTagAISteem",
      "type": "event"
    },
    {
      "anonymous": false,
      "inputs": [
        {
          "indexed": false,
          "internalType": "string",
          "name": "steemAccount",
          "type": "string"
        },
        {
          "indexed": false,
          "internalType": "address",
          "name": "user",
          "type": "address"
        },
        {
          "indexed": false,
          "internalType": "uint256",
          "name": "amount",
          "type": "uint256"
        }
      ],
      "name": "TagAISteemToSteem",
      "type": "event"
    },
    {
      "anonymous": false,
      "inputs": [
        {
          "indexed": true,
          "internalType": "address",
          "name": "from",
          "type": "address"
        },
        {
          "indexed": true,
          "internalType": "address",
          "name": "to",
          "type": "address"
        },
        {
          "indexed": false,
          "internalType": "uint256",
          "name": "value",
          "type": "uint256"
        }
      ],
      "name": "Transfer",
      "type": "event"
    },
    {
      "inputs": [
        {
          "internalType": "address",
          "name": "owner",
          "type": "address"
        },
        {
          "internalType": "address",
          "name": "spender",
          "type": "address"
        }
      ],
      "name": "allowance",
      "outputs": [
        {
          "internalType": "uint256",
          "name": "",
          "type": "uint256"
        }
      ],
      "stateMutability": "view",
      "type": "function"
    },
    {
      "inputs": [
        {
          "internalType": "address",
          "name": "spender",
          "type": "address"
        },
        {
          "internalType": "uint256",
          "name": "value",
          "type": "uint256"
        }
      ],
      "name": "approve",
      "outputs": [
        {
          "internalType": "bool",
          "name": "",
          "type": "bool"
        }
      ],
      "stateMutability": "nonpayable",
      "type": "function"
    },
    {
      "inputs": [
        {
          "internalType": "address",
          "name": "account",
          "type": "address"
        }
      ],
      "name": "balanceOf",
      "outputs": [
        {
          "internalType": "uint256",
          "name": "",
          "type": "uint256"
        }
      ],
      "stateMutability": "view",
      "type": "function"
    },
    {
      "inputs": [],
      "name": "decimals",
      "outputs": [
        {
          "internalType": "uint8",
          "name": "",
          "type": "uint8"
        }
      ],
      "stateMutability": "view",
      "type": "function"
    },
    {
      "inputs": [],
      "name": "minter",
      "outputs": [
        {
          "internalType": "address",
          "name": "",
          "type": "address"
        }
      ],
      "stateMutability": "view",
      "type": "function"
    },
    {
      "inputs": [],
      "name": "name",
      "outputs": [
        {
          "internalType": "string",
          "name": "",
          "type": "string"
        }
      ],
      "stateMutability": "view",
      "type": "function"
    },
    {
      "inputs": [],
      "name": "owner",
      "outputs": [
        {
          "internalType": "address",
          "name": "",
          "type": "address"
        }
      ],
      "stateMutability": "view",
      "type": "function"
    },
    {
      "inputs": [],
      "name": "renounceOwnership",
      "outputs": [],
      "stateMutability": "nonpayable",
      "type": "function"
    },
    {
      "inputs": [
        {
          "internalType": "address",
          "name": "_minter",
          "type": "address"
        }
      ],
      "name": "setMinter",
      "outputs": [],
      "stateMutability": "nonpayable",
      "type": "function"
    },
    {
      "inputs": [
        {
          "internalType": "string",
          "name": "steemAccount",
          "type": "string"
        },
        {
          "internalType": "address",
          "name": "_to",
          "type": "address"
        },
        {
          "internalType": "uint256",
          "name": "_amount",
          "type": "uint256"
        }
      ],
      "name": "steemToTsteem",
      "outputs": [],
      "stateMutability": "nonpayable",
      "type": "function"
    },
    {
      "inputs": [],
      "name": "symbol",
      "outputs": [
        {
          "internalType": "string",
          "name": "",
          "type": "string"
        }
      ],
      "stateMutability": "view",
      "type": "function"
    },
    {
      "inputs": [],
      "name": "totalSupply",
      "outputs": [
        {
          "internalType": "uint256",
          "name": "",
          "type": "uint256"
        }
      ],
      "stateMutability": "view",
      "type": "function"
    },
    {
      "inputs": [
        {
          "internalType": "address",
          "name": "to",
          "type": "address"
        },
        {
          "internalType": "uint256",
          "name": "value",
          "type": "uint256"
        }
      ],
      "name": "transfer",
      "outputs": [
        {
          "internalType": "bool",
          "name": "",
          "type": "bool"
        }
      ],
      "stateMutability": "nonpayable",
      "type": "function"
    },
    {
      "inputs": [
        {
          "internalType": "address",
          "name": "from",
          "type": "address"
        },
        {
          "internalType": "address",
          "name": "to",
          "type": "address"
        },
        {
          "internalType": "uint256",
          "name": "value",
          "type": "uint256"
        }
      ],
      "name": "transferFrom",
      "outputs": [
        {
          "internalType": "bool",
          "name": "",
          "type": "bool"
        }
      ],
      "stateMutability": "nonpayable",
      "type": "function"
    },
    {
      "inputs": [
        {
          "internalType": "address",
          "name": "newOwner",
          "type": "address"
        }
      ],
      "name": "transferOwnership",
      "outputs": [],
      "stateMutability": "nonpayable",
      "type": "function"
    },
    {
      "inputs": [
        {
          "internalType": "string",
          "name": "steemAccount",
          "type": "string"
        },
        {
          "internalType": "uint256",
          "name": "_amount",
          "type": "uint256"
        }
      ],
      "name": "tsteemToSteem",
      "outputs": [],
      "stateMutability": "nonpayable",
      "type": "function"
    }
  ],
  "bytecode": "0x608060405234801561000f575f5ffd5b50604051610e52380380610e5283398101604081905261002e91610131565b604080518082018252600a808252695461674149537465656d60b01b6020808401919091528351808501909452908352695441474149535445454d60b01b9083015290338061009657604051631e4fbdf760e01b81525f600482015260240160405180910390fd5b61009f816100e2565b5060046100ac83826101f6565b5060056100b982826101f6565b5050600680546001600160a01b0319166001600160a01b039390931692909217909155506102b0565b5f80546001600160a01b038381166001600160a01b0319831681178455604051919092169283917f8be0079c531659141344cd1fd0a4f28419497f9722a3daafe3b4186f6b6457e09190a35050565b5f60208284031215610141575f5ffd5b81516001600160a01b0381168114610157575f5ffd5b9392505050565b634e487b7160e01b5f52604160045260245ffd5b600181811c9082168061018657607f821691505b6020821081036101a457634e487b7160e01b5f52602260045260245ffd5b50919050565b601f8211156101f157805f5260205f20601f840160051c810160208510156101cf5750805b601f840160051c820191505b818110156101ee575f81556001016101db565b50505b505050565b81516001600160401b0381111561020f5761020f61015e565b6102238161021d8454610172565b846101aa565b6020601f821160018114610255575f831561023e5750848201515b5f19600385901b1c1916600184901b1784556101ee565b5f84815260208120601f198516915b828110156102845787850151825560209485019460019092019101610264565b50848210156102a157868401515f19600387901b60f8161c191681555b50505050600190811b01905550565b610b95806102bd5f395ff3fe608060405234801561000f575f5ffd5b50600436106100fb575f3560e01c8063715018a611610093578063aab49f1d11610063578063aab49f1d1461020f578063dd62ed3e14610222578063f2fde38b1461025a578063fca3b5aa1461026d575f5ffd5b8063715018a6146101dc5780638da5cb5b146101e457806395d89b41146101f4578063a9059cbb146101fc575f5ffd5b806323b872dd116100ce57806323b872dd1461017d578063313ce567146101905780636dffe66e1461019f57806370a08231146101b4575f5ffd5b806306fdde03146100ff578063075461721461011d578063095ea7b31461014857806318160ddd1461016b575b5f5ffd5b610107610280565b60405161011491906108d7565b60405180910390f35b600654610130906001600160a01b031681565b6040516001600160a01b039091168152602001610114565b61015b61015636600461090b565b610310565b6040519015158152602001610114565b6003545b604051908152602001610114565b61015b61018b366004610933565b610329565b60405160128152602001610114565b6101b26101ad366004610a0c565b61034c565b005b61016f6101c2366004610a4e565b6001600160a01b03165f9081526001602052604090205490565b6101b2610395565b5f546001600160a01b0316610130565b6101076103a8565b61015b61020a36600461090b565b6103b7565b6101b261021d366004610a67565b6103c4565b61016f610230366004610aaa565b6001600160a01b039182165f90815260026020908152604080832093909416825291909152205490565b6101b2610268366004610a4e565b610478565b6101b261027b366004610a4e565b6104b5565b60606004805461028f90610adb565b80601f01602080910402602001604051908101604052809291908181526020018280546102bb90610adb565b80156103065780601f106102dd57610100808354040283529160200191610306565b820191905f5260205f20905b8154815290600101906020018083116102e957829003601f168201915b5050505050905090565b5f3361031d8185856104df565b60019150505b92915050565b5f336103368582856104f1565b61034185858561056d565b506001949350505050565b61035633826105ca565b7ffc4b5ad4c010989e49997159e0e8b5a6f8a22ba7e7e24b63df556224ad06881282338360405161038993929190610b13565b60405180910390a15050565b61039d610602565b6103a65f61062e565b565b60606005805461028f90610adb565b5f3361031d81858561056d565b6006546001600160a01b0316331461042e5760405162461bcd60e51b815260206004820152602260248201527f4f6e6c79206d696e7465722063616e2063616c6c20746869732066756e63746960448201526137b760f11b60648201526084015b60405180910390fd5b610438828261067d565b7fb408b0f827ab88d5b2876aacfac6f83358090aa269e453d36e462d662837393583838360405161046b93929190610b13565b60405180910390a1505050565b610480610602565b6001600160a01b0381166104a957604051631e4fbdf760e01b81525f6004820152602401610425565b6104b28161062e565b50565b6104bd610602565b600680546001600160a01b0319166001600160a01b0392909216919091179055565b6104ec83838360016106b1565b505050565b6001600160a01b038381165f908152600260209081526040808320938616835292905220545f19811015610567578181101561055957604051637dc7a0d960e11b81526001600160a01b03841660048201526024810182905260448101839052606401610425565b61056784848484035f6106b1565b50505050565b6001600160a01b03831661059657604051634b637e8f60e11b81525f6004820152602401610425565b6001600160a01b0382166105bf5760405163ec442f0560e01b81525f6004820152602401610425565b6104ec838383610783565b6001600160a01b0382166105f357604051634b637e8f60e11b81525f6004820152602401610425565b6105fe825f83610783565b5050565b5f546001600160a01b031633146103a65760405163118cdaa760e01b8152336004820152602401610425565b5f80546001600160a01b038381166001600160a01b0319831681178455604051919092169283917f8be0079c531659141344cd1fd0a4f28419497f9722a3daafe3b4186f6b6457e09190a35050565b6001600160a01b0382166106a65760405163ec442f0560e01b81525f6004820152602401610425565b6105fe5f8383610783565b6001600160a01b0384166106da5760405163e602df0560e01b81525f6004820152602401610425565b6001600160a01b03831661070357604051634a1406b160e11b81525f6004820152602401610425565b6001600160a01b038085165f908152600260209081526040808320938716835292905220829055801561056757826001600160a01b0316846001600160a01b03167f8c5be1e5ebec7d5bd14f71427d1e84f3dd0314c0f7b2291e5b200ac8c7c3b9258460405161077591815260200190565b60405180910390a350505050565b6001600160a01b0383166107ad578060035f8282546107a29190610b40565b9091555061081d9050565b6001600160a01b0383165f90815260016020526040902054818110156107ff5760405163391434e360e21b81526001600160a01b03851660048201526024810182905260448101839052606401610425565b6001600160a01b0384165f9081526001602052604090209082900390555b6001600160a01b03821661083957600380548290039055610857565b6001600160a01b0382165f9081526001602052604090208054820190555b816001600160a01b0316836001600160a01b03167fddf252ad1be2c89b69c2b068fc378daa952ba7f163c4a11628f55a4df523b3ef8360405161089c91815260200190565b60405180910390a3505050565b5f81518084528060208401602086015e5f602082860101526020601f19601f83011685010191505092915050565b602081525f6108e960208301846108a9565b9392505050565b80356001600160a01b0381168114610906575f5ffd5b919050565b5f5f6040838503121561091c575f5ffd5b610925836108f0565b946020939093013593505050565b5f5f5f60608486031215610945575f5ffd5b61094e846108f0565b925061095c602085016108f0565b929592945050506040919091013590565b634e487b7160e01b5f52604160045260245ffd5b5f82601f830112610990575f5ffd5b813567ffffffffffffffff8111156109aa576109aa61096d565b604051601f8201601f19908116603f0116810167ffffffffffffffff811182821017156109d9576109d961096d565b6040528181528382016020018510156109f0575f5ffd5b816020850160208301375f918101602001919091529392505050565b5f5f60408385031215610a1d575f5ffd5b823567ffffffffffffffff811115610a33575f5ffd5b610a3f85828601610981565b95602094909401359450505050565b5f60208284031215610a5e575f5ffd5b6108e9826108f0565b5f5f5f60608486031215610a79575f5ffd5b833567ffffffffffffffff811115610a8f575f5ffd5b610a9b86828701610981565b93505061095c602085016108f0565b5f5f60408385031215610abb575f5ffd5b610ac4836108f0565b9150610ad2602084016108f0565b90509250929050565b600181811c90821680610aef57607f821691505b602082108103610b0d57634e487b7160e01b5f52602260045260245ffd5b50919050565b606081525f610b2560608301866108a9565b6001600160a01b039490941660208301525060400152919050565b8082018082111561032357634e487b7160e01b5f52601160045260245ffdfea26469706673582212204b378da56b4f13381328e4d5bf9c842b298ec27055682975517d4bbe89d358ec64736f6c634300081c0033",
  "linkReferences": {},
  "deployedLinkReferences": {},
  "immutableReferences": {},
  "inputSourceName": "project/contracts/TagAISteem.sol",
  "buildInfoId": "solc-0_8_28-7aea6d460e83f6c6c2d32acbbebeb0f53f8a94df"
}